:020000040000FA
:020000003128A5
:040002000034003492
:08000800A000030E8312A10009
:100010000000000022191B28A2140130230203193A
:100020001928A50CB0308100A517051DA513A8300F
:10003000292800302928221A21280314800C0318AB
:1000400024280511221225280515B9308100A21196
:10005000A0308B0005080000210E8300A00E200EAA
:100060000900FF2383168313031390008C019F0163
:100070008501083081008312043085000730990023
:1000800020309000851D5328A1210330D200CF01DC
:10009000A8216820682075202215AE20221180201A
:1000A000C320F7204F280511682005152211802054
:1000B000682068208620A120000000005D28A8019B
:1000C00000000000000000000000A80B60280800ED
:1000D000C830AA00B430A8001430A900A90B6E28BB
:1000E000A80B6C28AA0B6A2808008C018B018316C8
:1000F000051115158312B0308100A0308B00080067
:100100008C018316051516158312080068202C3003
:1001100084000B30A4008B0188308B000A30A300D0
:10012000A21C9028A210A30B90288B012508800008
:10013000840AA40B8B288B0183160830810083125C
:1001400008000A30A4008B132D3084003030A70043
:100150009121840AA70AA40BA82808002215A21539
:1001600022160A30A4002D3084000F30A3000008AE
:10017000A219B828A215A30BB828840A2216A40B2A
:10018000B5282211080088308B002D3084001230F1
:10019000A4001230A3009E308F0058308E008C01D6
:1001A0002130900051140C18EB28A21CD3280A30DF
:1001B00023020319EF20A210A30BD328EF20F42071
:1001C000A408031DC9288B0190018C015110511105
:1001D000851D48210800511490010C1008002508C5
:1001E0008000840AA403080088308B0008008B017B
:1001F000511C0529D208031DFE280829D20B082905
:1002000051190829A121511508295621A21B7C2129
:100210000830A4003F30840024080311063A031973
:100220001229132905141C213B21A40B0C291C2184
:100230008510511005150800DE308E00FE308F004D
:1002400021309000851429210C1C242990010C10C8
:100250000800AC0100082C02D300840A0008840ABC
:100260002C02D400D308031DD4031830D30703187D
:10027000D40AD40A080053088E0054088F00213095
:10028000900085100C1C4229051090010C100800EC
:100290008B131230A4003F3084004030A70091211E
:1002A000840AA70AA40B4F29D1140800A213AB019A
:1002B0002F3084000730A4002D0800070318AB0A74
:1002C000840A840AA40B5D290002031D78290830E2
:1002D000A4002E3084002B080007840A840AA40B93
:1002E0006C290002031D7829A2170330D2000800F0
:1002F000D208031DD2030800851D48211030A40038
:100300003F30A7002D30A600260884000008AC006E
:10031000270884002C088000A60AA70AA40B8429B9
:100320000800270883169B0000089A001C1555300A
:100330009D00AA309D009C1483128C1F9D298C1354
:1003400008001030A4004030A6003F30AF21080064
:100350000A30A4003030A6002D30AF210800840000
:10036000B621A60A840AA40BB02908002608831621
:0C0370009B001C141A0880008312080077
:0207FE00FF34C6
:02400E00C23FAF
:104200005200650069006E00680061007200640081
:1042100020005300740072006100750063006800A4
:10422000200032003000300039003B002000440004
:10423000650063006F0064006500720032003100A9
:10424000500050004D002D002000460053006F002C
:024250006E00FE
:10426000EE0000000000000055005500550055000C
:04427000550097005E
:10428000DC000500DC000500AC000400DC000500DB
:10429000DC000500DC000500DC000500DC0005009A
:00000001FF
